:020000040800F2
:1080000000000220919500082588000827880008B4
:10801000298800082B8800082D880008000000002F
:108020000000000000000000000000002F88000891
:1080300031880008000000003388000835880008F7
:10804000E1950008E1950008E1950008E195000838
:10805000E1950008E1950008E1950008E195000828
:10806000E1950008E1950008E1950008E195000818
:10807000E1950008E1950008E1950008E195000808
:10808000E1950008E1950008E19500080000000076
:10809000000000000000000000000000E195000862
:1080A000E1950008E1950008E1950008E1950008D8
:1080B000E1950008E1950008E1950008E1950008C8
:1080C000E1950008E1950008E1950008E1950008B8
:1080D000E1950008E1950008E19500080000000026
:1080E000E1950008E1950008E19500080000000016
:1080F000000000000000000000000000E195000802
:1081000000000000E1950008E1950008E1950008F5
:10811000000000000000000000000000000000005F
:10812000E1950008E1950008E1950008E195000857
:10813000E1950008000000000000000000000000C1
:10814000000000000000000000000000E1950008B1
:10815000E1950008E1950008E1950008E195000827
:10816000E1950008E1950008000000000000000013
:1081700000000000000000000000000000000000FF
:1081800000000000E1950008000000000000000071
:08819000E1950008E1950008EB
:108198000348044B834202D0034B03B1184770478E
:1081A8000C0000200C0000200000000005480649D3
:1081B8000B1AD90F01EBA301491002D0034B03B1ED
:1081C800184770470C0000200C0000200000000039
:1081D80010B5064C237843B9FFF7DAFF044B13B107
:1081E8000448AFF300800123237010BD0C00002069
:1081F80000000000E495000808B5044B1BB10449D1
:108208000448AFF30080BDE80840CFE70000000055
:1082180010000020E495000870B50D4E0D4D761B3A
:10822800B61006D0002455F8043B01349847A642FE
:10823800F9D1094E094D761B01F0D0F9B61006D0D8
:10824800002455F8043B01349847A642F9D170BD83
:108258001C9600081C960008209600081C9600082A
:10826800830730B548D0541E002A3FD0CAB203460F
:1082780001E0013C3AD303F8012B9D07F9D1032C07
:108288002DD9CDB245EA05250F2C45EA054536D945
:10829800A4F1100222F00F0C03F1200EE6444FEA7D
:1082A800121C03F1100242E9045542E9025510324A
:1082B8007245F8D10CF1010214F00C0F03EB021215
:1082C80004F00F0C13D0ACF1040323F003030433C0
:1082D800134442F8045B9342FBD10CF003042CB125
:1082E800CAB21C4403F8012B9C42FBD130BD644642
:1082F8001346002CF4D1F9E703461446BFE71A46A3
:10830800A446E0E753B94AB9002908BF00281CBFB2
:108318004FF0FF314FF0FF3000F074B9ADF1080CA9
:108328006DE904CE00F006F8DDF804E0DDE902238B
:1083380004B070472DE9F047089D04468E46002B8F
:108348004DD18A42944669D9B2FA82F252B101FA01
:1083580002F3C2F1200120FA01F10CFA02FC41EA11
:10836800030E94404FEA1C48210CBEFBF8F61FFA96
:108378008CF708FB16E341EA034306FB07F1994231
:108388000AD91CEB030306F1FF3080F01F819942E4
:1083980040F21C81023E63445B1AA4B2B3FBF8F0BE
:1083A80008FB103344EA034400FB07F7A7420AD945
:1083B8001CEB040400F1FF3380F00A81A74240F26D
:1083C80007816444023840EA0640E41B00261DB1D8
:1083D800D4400023C5E900433146BDE8F0878B420D
:1083E80009D9002D00F0EF800026C5E900013046CC
:1083F8003146BDE8F087B3FA83F6002E4AD18B42A6
:1084080002D3824200F2F980841A61EB030301204F
:108418009E46002DE0D0C5E9004EDDE702B9FFDE3B
:10842800B2FA82F2002A40F09280A1EB0C014FEAE6
:108438001C471FFA8CFE0126200CB1FBF7F307FB43
:10844800131140EA01410EFB03F0884208D91CEBE6
:10845800010103F1FF3802D2884200F2CB80434683
:10846800091AA4B2B1FBF7F007FB101144EA014462
:108478000EFB00FEA64508D91CEB040400F1FF31F1
:1084880002D2A64500F2BB800846A4EB0E0440EADF
:1084980003409CE7C6F12007B34022FA07FC4CEAE8
:1084A800030C20FA07F401FA06F31C43F9404FEADB
:1084B8001C4900FA06F3B1FBF9F8200C1FFA8CFEF0
:1084C80009FB181140EA014108FB0EF0884202FA44
:1084D80006F20BD91CEB010108F1FF3A80F0888005
:1084E800884240F28580A8F102086144091AA4B2C2
:1084F800B1FBF9F009FB101144EA014100FB0EFE43
:108508008E4508D91CEB010100F1FF346CD28E4571
:108518006AD90238614440EA0840A0FB0294A1EB02
:108528000E01A142C846A64656D353D05DB1B3EB5F
:10853800080261EB0E0101FA07F722FA06F3F1408F
:108548001F43C5E9007100263146BDE8F087C2F136
:108558002003D8400CFA02FC21FA03F391400143AE
:108568004FEA1C471FFA8CFEB3FBF7F007FB1036E7
:108578000B0C43EA064300FB0EF69E4204FA02F493
:1085880008D91CEB030300F1FF382FD29E422DD9E6
:10859800023863449B1B89B2B3FBF7F607FB16331B
:1085A80041EA034106FB0EF38B4208D91CEB01019B
:1085B80006F1FF3816D28B4214D9023E6144C91A1B
:1085C80046EA004638E72E46284605E70646E3E62B
:1085D8001846F8E64B45A9D2B9EB020864EB0C0E35
:1085E8000138A3E74646EAE7204694E74046D1E744
:1085F800D0467BE7023B614432E7304609E76444F2
:10860800023842E7704700BFF0B589B000240394F0
:10861800049405940694079400941F4B1A6B42F037
:1086280001021A631A6B02F001020092009A019487
:108638001A6B42F004021A631A6B02F004020192E8
:10864800019A02941A6B42F008021A631B6B03F03A
:1086580008030293029B114F22462021384600F05E
:10866800A3FD0F4D01220421284600F09DFD202383
:108678000393012604960594069403A9384600F04E
:10868800B3FC0423039304960594069403A928468F
:1086980000F0AAFC09B0F0BD00380240000002401A
:1086A800000C024072B6FEE708B50448044B0360AC
:1086B80000F066F900B908BDFFF7F4FF28000020B4
:1086C8000030024008B50D480D4B03604FF482732B
:1086D800436000238360C360036143614FF4007209
:1086E8008261C3610362436283620A23C36200F04A
:1086F80025FE00B908BDFFF7D5FF00BF30000020F8
:10870800003C004008B50A480A4B03604FF4E133C7
:10871800436000238360C36003610C22426183616C
:10872800C36100F0F3FE00B908BDFFF7BBFF00BF4F
:10873800880000200010014000B595B030220021CB
:1087480008A8FFF78DFD0023039304930593069370
:10875800079301931E4A116C41F080511164126C09
:1087680002F080520192019A02931A4A116841F468
:1087780040411160126802F440420292029A0222B9
:10878800089201210B9110210C910E920F931091D8
:10879800C823119312920423139308A800F000F938
:1087A80088B90F23039302230493002305934FF4FE
:1087B800805206920793032103A800F03FFB20B9DB
:1087C80015B05DF804FBFFF76DFFFFF76BFF00BF07
:1087D800003802400070004008B500F06FFDFFF758
:1087E800ABFFFFF711FFFFF75FFFFFF76BFFFFF727
:1087F80089FF094C01222021204600F0D5FC3220B7
:1088080000F088FD00222021204600F0CDFC322017
:1088180000F080FDEDE700BF00000240FEE7FEE744
:10882800FEE7FEE7FEE770477047704708B500F0BF
:108838005FFD08BD82B0002100910B4B5A6C42F4D9
:1088480080425A645A6C02F480420092009A019164
:108858001A6C42F080521A641B6C03F08053019327
:10886800019B02B0704700BF003802400268094B04
:108878009A4200D0704782B000230193064B1A6BCE
:1088880042F480521A631B6B03F480530193019BDB
:1088980002B07047003002400038024000B589B08D
:1088A8000023039304930593069307930268154BDB
:1088B8009A4202D009B05DF804FB0021019103F54A
:1088C800FE331A6C42F400421A641A6C02F4004235
:1088D8000192019A02911A6B42F004021A631B6B0F
:1088E80003F004030293029B4FF4E0530393022323
:1088F8000493032306930623079303A9024800F071
:1089080073FBD7E7003C00400008024000B589B07F
:10891800002303930493059306930793026803F1D6
:10892800804303F588339A4202D009B05DF804FB0E
:108938000021019103F594335A6C42F010025A64F5
:108948005A6C02F010020192019A02911A6B42F0DD
:1089580001021A631B6B03F001030293029B4FF49D
:10896800C063039302230493032306930723079307
:1089780003A9024800F038FBD7E700BF0000024017
:1089880058B110B5044643791BB101236371002027
:1089980010BD0371FFF76AFFF7E701207047000079
:1089A800002800F0E08170B582B00446036813F037
:1089B800010F3BD09F4B9B6803F00C03042B2CD07A
:1089C8009C4B9B6803F00C03082B21D06368B3F51C
:1089D800803F4FD0B3F5A02F52D0964B1A6822F49F
:1089E80080321A601A6822F480221A606368002BA9
:1089F80050D000F089FC05468E4B1B6813F4003FED
:108A080014D100F081FC401B6428F5D90320B1E1A2
:108A1800884B5B6813F4800FD8D0864B1B6813F41F
:108A2800003F03D06368002B00F09F81236813F098
:108A3800020F54D07F4B9B6813F00C0F3ED07D4B38
:108A48009B6803F00C03082B33D0E368002B68D035
:108A5800794B01221A6000F057FC0546754B1B68DC
:108A680013F0020F54D100F04FFC401B0228F5D937
:108A780003207FE16F4A136843F480331360B5E73E
:108A88006C4B1A6842F480221A601A6842F48032E9
:108A98001A60ABE700F038FC0546664B1B6813F418
:108AA800003FC3D000F030FC401B6428F5D90320F8
:108AB80060E1604B5B6813F4800FC6D15D4B1B68A7
:108AC80013F0020F03D0E368012B40F05081594A9C
:108AD800136823F0F803216943EAC103136023688C
:108AE80013F0080F42D063696BB3534B0122C3F8EC
:108AF800802E00F009FC05464E4B5B6F13F0020F09
:108B080034D100F001FC401B0228F5D9032031E1E3
:108B1800484A136823F0F803216943EAC103136044
:108B2800DDE7454B00221A6000F0EEFB0546414B9D
:108B38001B6813F0020FD2D000F0E6FB401B02289E
:108B4800F5D9032016E13C4B0022C3F8802E00F033
:108B5800DBFB0546374B5B6F13F0020F06D000F0C6
:108B6800D3FB401B0228F5D9032003E1236813F047
:108B7800040F77D02F4B1B6C13F0805F33D1002389
:108B880001932C4B1A6C42F080521A641B6C03F050
:108B980080530193019B0125284B1B6813F4807FA8
:108BA80023D0A368012B34D0052B38D0214B1A6F62
:108BB80022F001021A671A6F22F004021A67A368EA
:108BC800002B3DD000F0A0FB06461A4B1B6F13F09C
:108BD800020F46D100F098FB801B41F2883398427F
:108BE800F3D90320C6E00025D6E7144A136843F4F6
:108BF8008073136000F088FB0646104B1B6813F463
:108C0800807FCED100F080FB801B0228F5D903209D
:108C1800B0E0084A136F43F001031367CFE7054B31
:108C28001A6F42F004021A671A6F42F001021A67BB
:108C3800C5E700BF0038024000004742007000400E
:108C480000F062FB0646524B1B6F13F0020F08D070
:108C580000F05AFB801B41F288339842F3D9032075
:108C680088E0EDB9A369002B00F08380484A926838
:108C780002F00C02082A51D0022B17D0454B0022D3
:108C88001A6600F041FB0446414B1B6813F0007F55
:108C980042D000F039FB001B0228F5D9032069E017
:108CA8003B4A136C23F080531364DBE7394B0022F3
:108CB8001A6600F029FB0546354B1B6813F0007F48
:108CC80006D000F021FB401B0228F5D9032051E013
:108CD800E369226A1343626A43EA8213A26A52086A
:108CE800013A43EA0243E26A43EA0263284A5360CC
:108CF800284B01221A6600F007FB0446244B1B6828
:108D080013F0007F06D100F0FFFA001B0228F5D906
:108D180003202FE000202DE000202BE0012B2BD09A
:108D28001B4B5B6803F48001E269914226D103F092
:108D38003F02216A8A4223D1616A47F6C0721A400B
:108D4800B2EB811F1ED103F44031A26A5208013AE6
:108D5800B1EB024F18D103F07063E26AB3EB026F14
:108D680014D1002006E001207047012002E0012014
:108D780000E0002002B070BD0120FBE70120F9E708
:108D88000120F7E70120F5E70120F3E70120F1E7EB
:108D9800003802400000474208B5254B9B6803F0A5
:108DA8000C03042B3FD0082B3FD1214B5A6802F00B
:108DB8003F025B6813F4800F12D01D4B5968C1F352
:108DC80088111C480023A1FB0001FFF79BFA184BF0
:108DD8005B68C3F3014301335B00B0FBF3F025E0AC
:108DE800134B5968C1F3881C4FEA4C11B1EB0C00C6
:108DF8006EEB0E0E4FEA8E1343EA90638101091A57
:108E080063EB0E03DB0043EA5173C90011EB0C0C52
:108E180043F10003990200234FEA8C2041EA9C5158
:108E2800FFF770FAD3E7034800E0034808BD00BF26
:108E38000038024040787D010024F400002800F04A
:108E48009B8070B50D4604464F4B1B6803F0070323
:108E58008B4208D2CBB24C4A1370136803F0070355
:108E68008B4240F08B80236813F0020F17D013F069
:108E7800040F04D0454A936843F4E0539360236891
:108E880013F0080F04D0414A936843F46043936099
:108E98003E4A936823F0F003A1680B43936023686C
:108EA80013F0010F32D06368012B21D09A1E012ADA
:108EB80025D9364A126812F0020F61D033498A6800
:108EC80022F0030213438B6000F01EFA06462F4B74
:108ED8009B6803F00C036268B3EB820F16D000F0B6
:108EE80013FA801B41F288339842F0D9032042E0FC
:108EF800264A126812F4003FE0D101203BE0234AE1
:108F0800126812F0007FD9D1012034E01E4B1B6893
:108F180003F00703AB4207D9EAB21B4B1A701B6870
:108F280003F00703AB422DD1236813F0040F06D0DA
:108F3800164A936823F4E053E1680B43936023686F
:108F480013F0080F07D0114A936823F4604321698E
:108F580043EAC1039360FFF71FFF0C4B9B68C3F301
:108F680003130B4AD35CD8400A4B18600A4B1868A5
:108F780000F07EF9002070BD012070470120FAE75B
:108F88000120F8E70120F6E7003C024000380240E3
:108F9800FC9500080800002004000020014B186818
:108FA800704700BF0800002008B5FFF7F7FF044B23
:108FB8009B68C3F38223034AD35CD84008BD00BF33
:108FC800003802400C96000808B5FFF7E7FF044B8D
:108FD8009B68C3F34233034AD35CD84008BD00BF43
:108FE800003802400C96000800230F2B00F2D280B4
:108FF80070B582B060E085685E000324B44025EA5D
:109008000405CC68B4402C438460456825EA020511
:109018004C68C4F300129A402A4342605AE0DC08C4
:10902800083450F8246003F0070295000F22AA4084
:1090380026EA020E0A69AA4042EA0E0240F82420F3
:109048005CE0042200E0002202FA0EF22A43023415
:10905800514D45F82420514A94686FEA0C0224EADD
:109068000C054E6816F4801F01D04CEA04054B4CE1
:10907800A560E46802EA04054E6816F4001F01D0F2
:109088004CEA0405454CE560646802EA04054E684C
:1090980016F4003F01D04CEA0405404C6560246892
:1090A80022404D6815F4803F01D04CEA04023B4C45
:1090B800226001330F2B6BD801229A400C6804EA16
:1090C800020C32EA0404F4D14C6804F00304013CB5
:1090D800012C90D94A6802F00302032A09D0C46817
:1090E8005D000322AA4024EA02048A68AA402243B7
:1090F800C2604A6802F00302022A90D004684FEA6C
:10910800430E032202FA0EF224EA02044A6802F02D
:10911800030202FA0EF2224302604A6812F4403F48
:10912800C7D0002201921E4A546C44F4804454640F
:10913800526C02F480420192019A9C08A51C164ABE
:1091480052F8255003F003024FEA820E0F2202FA6A
:109158000EF225EA0205134A90423FF474AF02F575
:10916800806290420ED002F5806290420CD002F5E7
:10917800806290420AD002F5806290423FF461AF6B
:10918800072261E701225FE702225DE703225BE72E
:1091980002B070BD704700BF00380140003C01407C
:1091A80000380240000002400AB18161704709049A
:1091B80081617047074AD36823F4E0631B041B0CE2
:1091C800000200F4E060034343F0BF6343F400335C
:1091D800D360704700ED00E000B5194BDB68C3F3BE
:1091E8000223C3F1070CBCF1040F28BF4FF0040C95
:1091F80003F1040EBEF1060F18D9033B4FF0FF3EF2
:109208000EFA0CFC21EA0C0199400EFA03F322EA4B
:109218000303194300280BDB0901C9B200F16040C0
:1092280000F5614080F800135DF804FB0023E5E7D2
:1092380000F00F000901C9B2024B1954F4E700BF4E
:1092480000ED00E014ED00E00138B0F1807F0BD2B2
:109258004FF0E0235861054AF02182F823100020DE
:10926800986107221A6170470120704700ED00E0FD
:1092780010B504460E4B18784FF47A73B3FBF0F32D
:109288000C4A1068B0FBF3F0FFF7DEFF68B90F2C4B
:1092980001D901200AE0002221464FF0FF30FFF7F4
:1092A8009BFF054B1C60002000E0012010BD00BFA3
:1092B80000000020080000200400002008B50B4B27
:1092C8001A6842F400721A601A6842F480621A60DE
:1092D8001A6842F480721A600320FFF76BFF0F20B0
:1092E800FFF7C6FFFFF7A6FA002008BD003C0240C2
:1092F800034A1168034B1B780B441360704700BF87
:10930800D000002000000020014B1868704700BF03
:10931800D000002038B50446FFF7F6FF0546B4F143
:10932800FF3F02D0044B1B781C44FFF7EDFF401BA6
:10933800A042FAD338BD00BF0000002000285AD050
:1093480010B50446436A33B94368B3F5827F05D044
:109358000023C36102E00023036143610023A36289
:1093680094F85130002B40D0022384F85130226801
:10937800136823F040031360636803F48273A268E0
:1093880002F404421343E26802F4006213432269C0
:1093980002F002021343626902F001021343A26958
:1093A80002F400721343E26902F038021343226A9E
:1093B80002F080021343A26A02F4005221681343A8
:1093C8000B60638B03F00403626A02F010022168E9
:1093D80013434B602268D36923F40063D3610020F0
:1093E8006065012384F8513010BD84F85030204660
:1093F800FFF754FAB8E701207047000038B5044673
:109408000268136923F44053C1680B4313618368EE
:109418000269134342691343C2691A430168CB685E
:1094280023F4164323F00C031343CB6002685369FB
:1094380023F4407381690B4353610368314A9342B3
:1094480006D002F58062934202D0FFF7ADFD01E03D
:10945800FFF7BAFDE369B3F5004F29D000210318DF
:1094680049411B1841F10001C90041EA5371DB0071
:10947800181863684FEA83024FEA937341F10001B9
:10948800FEF740FF204DA5FB00325109642303FB82
:1094980011031B013233A5FB03235B0903F0F00220
:1094A80002EB011203F00F03216813448B6038BDEF
:1094B8000023021843EB0301121841F10001C9000F
:1094C80041EA5271D200101841F100016268921805
:1094D8005B41FEF717FF0C4DA5FB003251096423D1
:1094E80003FB1103DB003233A5FB03235B095A009E
:1094F80002F4F87202EB011203F007032168134427
:109508008B60D4E7001001401F85EB5160B310B5A4
:10951800044690F8413013B3242384F8413022687C
:10952800D36823F40053D3602046FFF767FF22680F
:10953800136923F4904313612268536923F02A03C3
:1095480053612268D36843F40053D36000206064F9
:10955800202384F8413084F84230606310BD80F8DD
:109568004030FFF7D3F9D7E701207047044BD3F811
:10957800882042F47002C3F88820024A9A60704733
:1095880000ED00E000800008DFF834D0FFF7EEFFC0
:109598000C480D490D4A002302E0D458C450043346
:1095A800C4188C42F9D30A4A0A4C002301E013601C
:1095B8000432A242FBD3FEF72FFEFFF70DF97047E6
:1095C80000000220000000200C0000202496000863
:1095D8000C000020D4000020FEE70000F8B500BF12
:1095E800F8BC08BC9E467047F8B500BFF8BC08BC7C
:0495F8009E467047D4
:1095FC000000000000000000010203040607080937
:08960C0000000000010203044C
:0896140028EDFF7F01000000BA
:04961C0001820008BF
:04962000D9810008E4
:0C96240001000000100000000024F40011
:0400000508009591C9
:00000001FF
